{
  "contractName": "Twitter",
  "abi": [
    {
      "anonymous": false,
      "inputs": [
        {
          "indexed": false,
          "internalType": "uint256",
          "name": "id",
          "type": "uint256"
        },
        {
          "indexed": false,
          "internalType": "string",
          "name": "content",
          "type": "string"
        },
        {
          "indexed": true,
          "internalType": "address",
          "name": "from",
          "type": "address"
        },
        {
          "indexed": true,
          "internalType": "address",
          "name": "to",
          "type": "address"
        },
        {
          "indexed": false,
          "internalType": "uint256",
          "name": "createdAt",
          "type": "uint256"
        }
      ],
      "name": "MessageSent",
      "type": "event"
    },
    {
      "anonymous": false,
      "inputs": [
        {
          "indexed": false,
          "internalType": "uint256",
          "name": "id",
          "type": "uint256"
        },
        {
          "indexed": true,
          "internalType": "address",
          "name": "author",
          "type": "address"
        },
        {
          "indexed": false,
          "internalType": "string",
          "name": "content",
          "type": "string"
        },
        {
          "indexed": false,
          "internalType": "uint256",
          "name": "createdAt",
          "type": "uint256"
        }
      ],
      "name": "TweetSent",
      "type": "event"
    },
    {
      "constant": true,
      "inputs": [
        {
          "internalType": "address",
          "name": "",
          "type": "address"
        },
        {
          "internalType": "uint256",
          "name": "",
          "type": "uint256"
        }
      ],
      "name": "following",
      "outputs": [
        {
          "internalType": "address",
          "name": "",
          "type": "address"
        }
      ],
      "payable": false,
      "stateMutability": "view",
      "type": "function"
    },
    {
      "constant": false,
      "inputs": [
        {
          "internalType": "string",
          "name": "_content",
          "type": "string"
        }
      ],
      "name": "tweet",
      "outputs": [],
      "payable": false,
      "stateMutability": "nonpayable",
      "type": "function"
    },
    {
      "constant": false,
      "inputs": [
        {
          "internalType": "address",
          "name": "_from",
          "type": "address"
        },
        {
          "internalType": "string",
          "name": "_content",
          "type": "string"
        }
      ],
      "name": "tweetFrom",
      "outputs": [],
      "payable": false,
      "stateMutability": "nonpayable",
      "type": "function"
    },
    {
      "constant": false,
      "inputs": [
        {
          "internalType": "string",
          "name": "_content",
          "type": "string"
        },
        {
          "internalType": "address",
          "name": "_to",
          "type": "address"
        }
      ],
      "name": "sendMessage",
      "outputs": [],
      "payable": false,
      "stateMutability": "nonpayable",
      "type": "function"
    },
    {
      "constant": false,
      "inputs": [
        {
          "internalType": "string",
          "name": "_content",
          "type": "string"
        },
        {
          "internalType": "address",
          "name": "_from",
          "type": "address"
        },
        {
          "internalType": "address",
          "name": "_to",
          "type": "address"
        }
      ],
      "name": "sendMessageFrom",
      "outputs": [],
      "payable": false,
      "stateMutability": "nonpayable",
      "type": "function"
    },
    {
      "constant": false,
      "inputs": [
        {
          "internalType": "address",
          "name": "_followed",
          "type": "address"
        }
      ],
      "name": "follow",
      "outputs": [],
      "payable": false,
      "stateMutability": "nonpayable",
      "type": "function"
    },
    {
      "constant": false,
      "inputs": [
        {
          "internalType": "address",
          "name": "_operator",
          "type": "address"
        }
      ],
      "name": "allow",
      "outputs": [],
      "payable": false,
      "stateMutability": "nonpayable",
      "type": "function"
    },
    {
      "constant": false,
      "inputs": [
        {
          "internalType": "address",
          "name": "_operator",
          "type": "address"
        }
      ],
      "name": "disallow",
      "outputs": [],
      "payable": false,
      "stateMutability": "nonpayable",
      "type": "function"
    },
    {
      "constant": true,
      "inputs": [
        {
          "internalType": "uint256",
          "name": "count",
          "type": "uint256"
        }
      ],
      "name": "getLatestTweets",
      "outputs": [
        {
          "components": [
            {
              "internalType": "uint256",
              "name": "id",
              "type": "uint256"
            },
            {
              "internalType": "address",
              "name": "author",
              "type": "address"
            },
            {
              "internalType": "string",
              "name": "content",
              "type": "string"
            },
            {
              "internalType": "uint256",
              "name": "createdAt",
              "type": "uint256"
            }
          ],
          "internalType": "struct Twitter.Tweet[]",
          "name": "",
          "type": "tuple[]"
        }
      ],
      "payable": false,
      "stateMutability": "view",
      "type": "function"
    },
    {
      "constant": true,
      "inputs": [
        {
          "internalType": "address",
          "name": "_user",
          "type": "address"
        },
        {
          "internalType": "uint256",
          "name": "count",
          "type": "uint256"
        }
      ],
      "name": "getTweetsOf",
      "outputs": [
        {
          "components": [
            {
              "internalType": "uint256",
              "name": "id",
              "type": "uint256"
            },
            {
              "internalType": "address",
              "name": "author",
              "type": "address"
            },
            {
              "internalType": "string",
              "name": "content",
              "type": "string"
            },
            {
              "internalType": "uint256",
              "name": "createdAt",
              "type": "uint256"
            }
          ],
          "internalType": "struct Twitter.Tweet[]",
          "name": "",
          "type": "tuple[]"
        }
      ],
      "payable": false,
      "stateMutability": "view",
      "type": "function"
    }
  ],
  "bytecode": "0x608060405234801561001057600080fd5b506118d1806100206000396000f3fe608060405234801561001057600080fd5b506004361061009e5760003560e01c8063a9ed9cb811610066578063a9ed9cb81461016b578063c48d6d5e14610187578063c6bc463c146101a3578063fb46d4c5146101bf578063ff9913e8146101db5761009e565b8063179a21e8146100a35780634dbf27cc146100bf5780634dc0a687146100db5780635b4d42141461010b5780639139cda51461013b575b600080fd5b6100bd60048036036100b89190810190611359565b6101f7565b005b6100d960048036036100d491908101906111ff565b61024c565b005b6100f560048036036100f091908101906113c5565b6102f2565b60405161010291906116af565b60405180910390f35b61012560048036036101209190810190611280565b610583565b60405161013291906116af565b60405180910390f35b61015560048036036101509190810190611280565b61087c565b6040516101629190611694565b60405180910390f35b610185600480360361018091908101906111ff565b6108c7565b005b6101a1600480360361019c9190810190611301565b61095f565b005b6101bd60048036036101b89190810190611228565b6109b3565b005b6101d960048036036101d491908101906112bc565b610a06565b005b6101f560048036036101f091908101906111ff565b610a58565b005b61024684848080601f016020809104026020016040519081016040528093929190818152602001838380828437600081840152601f19601f820116905080830192505050505050508383610af0565b50505050565b600360003373ffffffffffffffffffffffffffffffffffffffff1673ffffffffffffffffffffffffffffffffffffffff1681526020019081526020016000208190806001815401808255809150509060018203906000526020600020016000909192909190916101000a81548173ffffffffffffffffffffffffffffffffffffffff021916908373ffffffffffffffffffffffffffffffffffffffff1602179055505050565b606060008211610337576040517f08c379a000000000000000000000000000000000000000000000000000000000815260040161032e90611711565b60405180910390fd5b60606000806000600554141561038d57600060405190808252806020026020018201604052801561038257816020015b61036f6110a8565b8152602001906001900390816103675790505b50935050505061057e565b8460055410156103e4576005546040519080825280602002602001820160405280156103d357816020015b6103c06110a8565b8152602001906001900390816103b85790505b50925060009150600554905061042e565b8460405190808252806020026020018201604052801561041e57816020015b61040b6110a8565b8152602001906001900390816104035790505b5092508460055403915060055490505b60008290505b8181101561057657600080600083815260200190815260200160002090506040518060800160405280826000015481526020018260010160009054906101000a900473ffffffffffffffffffffffffffffffffffffffff1673ffffffffffffffffffffffffffffffffffffffff168152602001826002018054600181600116156101000203166002900480601f01602080910402602001604051908101604052809291908181526020018280546001816001161561010002031660029004801561053f5780601f106105145761010080835404028352916020019161053f565b820191906000526020600020905b81548152906001019060200180831161052257829003601f168201915b50505050508152602001826003015481525085838151811061055d57fe5b6020026020010181905250508080600101915050610434565b508293505050505b919050565b6060600082116105c8576040517f08c379a00000000000000000000000000000000000000000000000000000000081526004016105bf906116f1565b60405180910390fd5b6000600160008573ffffffffffffffffffffffffffffffffffffffff1673ffffffffffffffffffffffffffffffffffffffff1681526020019081526020016000209050606060008060008480549050141561066457600060405190808252806020026020018201604052801561065857816020015b6106456110a8565b81526020019060019003908161063d5790505b50945050505050610876565b85848054905010156106c15783805490506040519080825280602002602001820160405280156106ae57816020015b61069b6110a8565b8152602001906001900390816106935790505b509250600091508380549050905061070f565b856040519080825280602002602001820160405280156106fb57816020015b6106e86110a8565b8152602001906001900390816106e05790505b509250858480549050039150838054905090505b60008290505b8181101561086d57600080600087848154811061072e57fe5b9060005260206000200154815260200190815260200160002090506040518060800160405280826000015481526020018260010160009054906101000a900473ffffffffffffffffffffffffffffffffffffffff1673ffffffffffffffffffffffffffffffffffffffff168152602001826002018054600181600116156101000203166002900480601f0160208091040260200160405190810160405280929190818152602001828054600181600116156101000203166002900480156108365780601f1061080b57610100808354040283529160200191610836565b820191906000526020600020905b81548152906001019060200180831161081957829003601f168201915b50505050508152602001826003015481525085838151811061085457fe5b6020026020010181905250508080600101915050610715565b50829450505050505b92915050565b6003602052816000526040600020818154811061089557fe5b906000526020600020016000915091509054906101000a900473ffffffffffffffffffffffffffffffffffffffff1681565b6000600460003373ffffffffffffffffffffffffffffffffffffffff1673ffffffffffffffffffffffffffffffffffffffff16815260200190815260200160002060008373ffffffffffffffffffffffffffffffffffffffff1673ffffffffffffffffffffffffffffffffffffffff16815260200190815260200160002060006101000a81548160ff02191690831515021790555050565b6109ae83838080601f016020809104026020016040519081016040528093929190818152602001838380828437600081840152601f19601f820116905080830192505050505050503383610af0565b505050565b610a018383838080601f016020809104026020016040519081016040528093929190818152602001838380828437600081840152601f19601f82011690508083019250505050505050610e03565b505050565b610a543383838080601f016020809104026020016040519081016040528093929190818152602001838380828437600081840152601f19601f82011690508083019250505050505050610e03565b5050565b6001600460003373ffffffffffffffffffffffffffffffffffffffff1673ffffffffffffffffffffffffffffffffffffffff16815260200190815260200160002060008373ffffffffffffffffffffffffffffffffffffffff1673ffffffffffffffffffffffffffffffffffffffff16815260200190815260200160002060006101000a81548160ff02191690831515021790555050565b8160011515600460008373ffffffffffffffffffffffffffffffffffffffff1673ffffffffffffffffffffffffffffffffffffffff16815260200190815260200160002060003373ffffffffffffffffffffffffffffffffffffffff1673ffffffffffffffffffffffffffffffffffffffff16815260200190815260200160002060009054906101000a900460ff1615151480610bb857508073ffffffffffffffffffffffffffffffffffffffff163373ffffffffffffffffffffffffffffffffffffffff16145b610bf7576040517f08c379a0000000000000000000000000000000000000000000000000000000008152600401610bee906116d1565b60405180910390fd5b60008273ffffffffffffffffffffffffffffffffffffffff168473ffffffffffffffffffffffffffffffffffffffff16019050600260008281526020019081526020016000206040518060a0016040528060065481526020018781526020018673ffffffffffffffffffffffffffffffffffffffff1681526020018573ffffffffffffffffffffffffffffffffffffffff1681526020014281525090806001815401808255809150509060018203906000526020600020906005020160009091929091909150600082015181600001556020820151816001019080519060200190610ce39291906110e6565b5060408201518160020160006101000a81548173ffffffffffffffffffffffffffffffffffffffff021916908373ffffffffffffffffffffffffffffffffffffffff16021790555060608201518160030160006101000a81548173ffffffffffffffffffffffffffffffffffffffff021916908373ffffffffffffffffffffffffffffffffffffffff160217905550608082015181600401555050508273ffffffffffffffffffffffffffffffffffffffff168473ffffffffffffffffffffffffffffffffffffffff167f053227a5bdcc96607ea58ea40dd04c9394ddebceb1cd539ad1289d8b074bc4eb6006548842604051610de293929190611731565b60405180910390a36006600081548092919060010191905055505050505050565b8160011515600460008373ffffffffffffffffffffffffffffffffffffffff1673ffffffffffffffffffffffffffffffffffffffff16815260200190815260200160002060003373ffffffffffffffffffffffffffffffffffffffff1673ffffffffffffffffffffffffffffffffffffffff16815260200190815260200160002060009054906101000a900460ff1615151480610ecb57508073ffffffffffffffffffffffffffffffffffffffff163373ffffffffffffffffffffffffffffffffffffffff16145b610f0a576040517f08c379a0000000000000000000000000000000000000000000000000000000008152600401610f01906116d1565b60405180910390fd5b604051806080016040528060055481526020018473ffffffffffffffffffffffffffffffffffffffff1681526020018381526020014281525060008060055481526020019081526020016000206000820151816000015560208201518160010160006101000a81548173ffffffffffffffffffffffffffffffffffffffff021916908373ffffffffffffffffffffffffffffffffffffffff1602179055506040820151816002019080519060200190610fc49291906110e6565b5060608201518160030155905050600160008473ffffffffffffffffffffffffffffffffffffffff1673ffffffffffffffffffffffffffffffffffffffff16815260200190815260200160002060055490806001815401808255809150509060018203906000526020600020016000909192909190915055508273ffffffffffffffffffffffffffffffffffffffff167f8d6b17b300471dd2e4fef05e2e70f50c236372b9a4aaf37cdb52644d99bc21a7600554844260405161108993929190611731565b60405180910390a2600560008154809291906001019190505550505050565b604051806080016040528060008152602001600073ffffffffffffffffffffffffffffffffffffffff16815260200160608152602001600081525090565b828054600181600116156101000203166002900490600052602060002090601f016020900481019282601f1061112757805160ff1916838001178555611155565b82800160010185558215611155579182015b82811115611154578251825591602001919060010190611139565b5b5090506111629190611166565b5090565b61118891905b8082111561118457600081600090555060010161116c565b5090565b90565b60008135905061119a81611860565b92915050565b60008083601f8401126111b257600080fd5b8235905067ffffffffffffffff8111156111cb57600080fd5b6020830191508360018202830111156111e357600080fd5b9250929050565b6000813590506111f981611877565b92915050565b60006020828403121561121157600080fd5b600061121f8482850161118b565b91505092915050565b60008060006040848603121561123d57600080fd5b600061124b8682870161118b565b935050602084013567ffffffffffffffff81111561126857600080fd5b611274868287016111a0565b92509250509250925092565b6000806040838503121561129357600080fd5b60006112a18582860161118b565b92505060206112b2858286016111ea565b9150509250929050565b600080602083850312156112cf57600080fd5b600083013567ffffffffffffffff8111156112e957600080fd5b6112f5858286016111a0565b92509250509250929050565b60008060006040848603121561131657600080fd5b600084013567ffffffffffffffff81111561133057600080fd5b61133c868287016111a0565b9350935050602061134f8682870161118b565b9150509250925092565b6000806000806060858703121561136f57600080fd5b600085013567ffffffffffffffff81111561138957600080fd5b611395878288016111a0565b945094505060206113a88782880161118b565b92505060406113b98782880161118b565b91505092959194509250565b6000602082840312156113d757600080fd5b60006113e5848285016111ea565b91505092915050565b60006113fa8383611613565b905092915050565b61140b816117e0565b82525050565b61141a816117e0565b82525050565b600061142b8261177f565b61143581856117ad565b9350836020820285016114478561176f565b8060005b85811015611483578484038952815161146485826113ee565b945061146f836117a0565b925060208a0199505060018101905061144b565b50829750879550505050505092915050565b60006114a082611795565b6114aa81856117cf565b93506114ba81856020860161181c565b6114c38161184f565b840191505092915050565b60006114d98261178a565b6114e381856117be565b93506114f381856020860161181c565b6114fc8161184f565b840191505092915050565b60006115146017836117cf565b91507f4f70657261746f72206e6f7420617574686f72697a65640000000000000000006000830152602082019050919050565b60006115546021836117cf565b91507f546f6f20666577206f7220746f6f206d616e792074776565747320746f20676560008301527f74000000000000000000000000000000000000000000000000000000000000006020830152604082019050919050565b60006115ba6028836117cf565b91507f546f6f20666577206f7220746f6f206d616e792074776565747320746f20676560008301527f74206c61746573740000000000000000000000000000000000000000000000006020830152604082019050919050565b600060808301600083015161162b6000860182611676565b50602083015161163e6020860182611402565b506040830151848203604086015261165682826114ce565b915050606083015161166b6060860182611676565b508091505092915050565b61167f81611812565b82525050565b61168e81611812565b82525050565b60006020820190506116a96000830184611411565b92915050565b600060208201905081810360008301526116c98184611420565b905092915050565b600060208201905081810360008301526116ea81611507565b9050919050565b6000602082019050818103600083015261170a81611547565b9050919050565b6000602082019050818103600083015261172a816115ad565b9050919050565b60006060820190506117466000830186611685565b81810360208301526117588185611495565b90506117676040830184611685565b949350505050565b6000819050602082019050919050565b600081519050919050565b600081519050919050565b600081519050919050565b6000602082019050919050565b600082825260208201905092915050565b600082825260208201905092915050565b600082825260208201905092915050565b60006117eb826117f2565b9050919050565b600073ffffffffffffffffffffffffffffffffffffffff82169050919050565b6000819050919050565b60005b8381101561183a57808201518184015260208101905061181f565b83811115611849576000848401525b50505050565b6000601f19601f8301169050919050565b611869816117e0565b811461187457600080fd5b50565b61188081611812565b811461188b57600080fd5b5056fea365627a7a723158202c53cbfe30badccc669cc562c9832336606218096945000c196b9940b3474c576c6578706572696d656e74616cf564736f6c63430005100040",
  "source": "pragma solidity ^0.5.8;\npragma experimental ABIEncoderV2;\n\ncontract Twitter {\n    struct Tweet {\n        uint id;\n        address author;\n        string content;\n        uint createdAt;\n    }\n\n    struct Message {\n        uint id;\n        string content;\n        address from;\n        address to;\n        uint createdAt;\n    }\n\n    mapping(uint => Tweet) private tweets;\n    mapping(address => uint[]) private tweetsOf;\n    mapping(uint => Message[]) private conversations;\n    mapping(address => address[]) public following;\n    mapping(address => mapping(address => bool)) private operators;\n    uint private nextTweetId;\n    uint private nextMessageId;\n\n    event TweetSent (\n        uint id,\n        address indexed author,\n        string content,\n        uint createdAt\n    );\n\n    event MessageSent(\n        uint id,\n        string content,\n        address indexed from,\n        address indexed to,\n        uint createdAt\n    );\n\n    function tweet(string calldata _content) external {\n        _tweet(msg.sender, _content);\n    }\n\n    function tweetFrom(address _from, string calldata _content) external {\n        _tweet(_from, _content);\n    }\n\n    function sendMessage(\n        string calldata _content,\n        address _to)\n    external {\n        _sendMessage(_content, msg.sender, _to);\n    }\n\n    function sendMessageFrom(\n        string calldata _content,\n        address _from,\n        address _to)\n    external {\n        _sendMessage(_content, _from, _to);\n    }\n\n    function follow(address _followed) external {\n        following[msg.sender].push(_followed);\n    }\n\n    function allow(address _operator) external {\n        operators[msg.sender][_operator] = true;\n    }\n\n    function disallow(address _operator) external {\n        operators[msg.sender][_operator] = false;\n    }\n\n    function getLatestTweets(uint count) view external returns (Tweet[] memory) {\n        require(count > 0, 'Too few or too many tweets to get latest');\n\n        Tweet[] memory _tweets;\n        uint start;\n        uint end;\n        if (nextTweetId == 0) {\n            return new Tweet[](0);\n        } else if (nextTweetId < count) {\n            _tweets = new Tweet[](nextTweetId);\n            start = 0;\n            end = nextTweetId;\n        } else {\n            _tweets = new Tweet[](count);\n            start = nextTweetId - count;\n            end = nextTweetId;\n        }\n\n        for (uint i = start; i < end; i++) {\n            Tweet storage _tweet = tweets[i];\n            _tweets[i] = Tweet(\n                _tweet.id,\n                _tweet.author,\n                _tweet.content,\n                _tweet.createdAt\n            );\n        }\n\n        return _tweets;\n    }\n\n    function getTweetsOf(address _user, uint count) view external returns (Tweet[] memory) {\n        require(count > 0, 'Too few or too many tweets to get');\n\n        uint[] storage tweetIds = tweetsOf[_user];\n\n        Tweet[] memory _tweets;\n        uint start;\n        uint end;\n        if (tweetIds.length == 0) {\n            return new Tweet[](0);\n        } else if (tweetIds.length < count) {\n            _tweets = new Tweet[](tweetIds.length);\n            start = 0;\n            end = tweetIds.length;\n        } else {\n            _tweets = new Tweet[](count);\n            start = tweetIds.length - count;\n            end = tweetIds.length;\n        }\n\n        for (uint i = start; i < end; i++) {\n            Tweet storage _tweet = tweets[tweetIds[i]];\n            _tweets[i] = Tweet(\n                _tweet.id,\n                _tweet.author,\n                _tweet.content,\n                _tweet.createdAt\n            );\n        }\n\n        return _tweets;\n    }\n\n    function _tweet(address _from, string memory _content) internal canOperate(_from) {\n        tweets[nextTweetId] = Tweet(nextTweetId, _from, _content, now);\n        tweetsOf[_from].push(nextTweetId);\n        emit TweetSent(nextTweetId, _from, _content, now);\n        nextTweetId++;\n    }\n\n    function _sendMessage(string memory _content, address _from, address _to) internal canOperate(_from) {\n        uint conversationId = uint(_from) + uint(_to);\n        conversations[conversationId].push(Message(\n                nextMessageId,\n                _content,\n                _from,\n                _to,\n                now)\n        );\n        emit MessageSent(nextMessageId, _content, _from, _to, now);\n        nextMessageId++;\n    }\n\n    modifier canOperate(address _from) {\n        require(\n            operators[_from][msg.sender] == true || msg.sender == _from,\n            'Operator not authorized');\n        _;\n    }\n}\n",
  "sourcePath": "/home/jmarquez/sourcecode/hackday-20210809/twitter/src/contracts/Twitter.sol",
  "compiler": {
    "name": "solc",
    "version": "0.5.16+commit.9c3226ce.Emscripten.clang"
  },
  "schemaVersion": "3.4.2",
  "updatedAt": "2021-08-10T09:56:19.546Z",
  "networkType": "ethereum",
  "devdoc": {
    "methods": {}
  },
  "userdoc": {
    "methods": {}
  }
}